:020000040800F2
:1000000028130020790200087D0200087F02000802
:100010008102000883020008850200080000000039
:10002000000000000000000000000000870200083F
:1000300089020008000000008B0200088D02000801
:10004000771600088F0200088F0200088F02000850
:100050008F0200088F0200088F0200088F0200083C
:100060008F0200088F0200088F0200088F0200082C
:100070008F0200088F0200088F0200088F0200081C
:100080008F0200088F0200088F0200088F0200080C
:100090008F0200088F0200088F0200088F020008FC
:1000A0008F0200088F0200088F0200088F020008EC
:1000B000BD700008D11600088F0200088F020008EA
:1000C0008F0200088F0200088F0200088F020008CC
:1000D0008F020008FD120008CF4600082D630008BB
:1000E000411500088F0200088F02000800F002F896
:1000F00000F0B2F80AA090E8000C82448344AAF110
:100100000107DA4501D100F0A7F8AFF2090EBAE80D
:100110000F0013F0010F18BFFB1A43F0010318473B
:10012000E8D2000008D300000A444FF0000C10F899
:10013000013B13F0070408BF10F8014B1D1108BF65
:1001400010F8015B641E05D010F8016B641E01F805
:10015000016BF9D113F0080F1EBF10F8014BAD1C55
:100160000C1B09D16D1E58BF01F801CBFAD505E073
:1001700014F8016B01F8016B6D1EF9D59142D6D3CD
:10018000704700000023002400250026103A28BFF5
:1001900078C1FBD8520728BF30C148BF0B607047F9
:1001A0006E290AF0668270290AF0918066290CF0A7
:1001B000928265290CF08F8267290CF08C8261296C
:1001C000AFF3008003681B0A28BF41F08001692952
:1001D00009F0F887642909F0F587752909F0F28795
:1001E0006F290AF0848578290AF05E80E9290AF0EF
:1001F0000985E4290AF00685F5290AF00385EF2927
:100200000AF08185F8290AF05D800368DB0928BFC0
:1002100041F0800163290AF08C8473290AF09184EB
:10022000E3290AF01986F3290AF01E860020704798
:100230001FB5AFF300800AF07BFD04000020002111
:100240000BF06AFB401C6060002000210BF04EFBAD
:10025000E0601FBD10B510BD0AF096FE1146FFF715
:10026000E7FF00F08FFD0AF0BDFEFFF7F3FF01F09E
:1002700037F8000030BF000008480047FEE7FEE7FF
:10028000FEE7FEE7FEE7FEE7FEE7FEE7FEE7FEE746
:1002900003480449024A044B70470000ED0000087F
:1002A0002811002028130020281100201CB500234D
:1002B0001022CDE900230A23FE4800210268B42061
:1002C00004F0D1F81222FCA1FF4808F07DFCFE48A2
:1002D000C16809F086F8F748FCA10268FA4809F0FD
:1002E00056FDFB4B0122FBA1F74808F027FEFA4917
:1002F000FA4800680CF066F804460BF073FE0B46F3
:100300000246CDE90001F1A1EF4809F040FDF04BB4
:100310000122F0A1EC4808F011FEF149F148006813
:100320000CF050F804460BF05DFE0B460246CDE99A
:100330000001E6A1E44809F02AFDE54B0122E5A110
:10034000E14808F0FBFDE849E84800680CF03AF89D
:1003500004460BF047FE0B460246CDE90001DBA147
:10036000D94809F014FDDA4B0122DAA1D64808F089
:10037000E5FDDD49DE4800680CF024F804460BF08A
:1003800031FE0B460246CDE90001D0A1CE4809F06E
:10039000FEFCCF4B0122CFA1CB4808F0CFFDD249C4
:1003A000D44800680CF00EF804460BF01BFE0B4618
:1003B0000246CDE90001C5A1C34809F0E8FCC44BE1
:1003C0000122C4A1C04808F0B9FDCB480278BFA102
:1003D000BD4809F0DCFCBE4B0122BEA1BA4808F0C2
:1003E000ADFDC649C64800680BF0ECFF04460BF0B3
:1003F000F9FD0B460246CDE90001B4A1B24809F06F
:10040000C6FCB34B0122B3A1AF4808F097FDBDA1D4
:10041000AD4809F0BCFCAC4808F0F7FEBA480068EB
:1004200008B9012000E00020B7490860A148006831
:10043000401CA04908601CBD1CB5B449002008F050
:10044000AEFB12229CA1A04808F0BEFBB049087088
:100450009D4808F0DAFE122297A19B4808F0B4FBF1
:100460009948C16808F0BDFF994B0A22A9A1964896
:1004700008F064FDA3A1944809F089FC924808F0B3
:10048000C4FEA3480078002828D1A54908800FE0C1
:100490009D48006808B9012000E000209A490860E2
:1004A000642000F074FD9E480088401C9C49088030
:1004B0009B4800880A28EBDB01209A4908609AA330
:1004C0001022CDE900231346C8223C211E2004F04F
:1004D0002EF84FF47A7000F05AFD16E014E09148BF
:1004E000006808B9012000E000208E4908606420FF
:1004F00000F04DFD8FA31022CDE900231346C82242
:100500003C211E2004F013F8E9E71CBD2DE9FC4155
:100510008C48008801287DD11F208B4908804FF42A
:10052000967000F034FD3A20884908706C496D4897
:1005300000680BF047FF06460BF0FAFE04468448BD
:10054000B4FBF0F03030814948708148B4FBF0F1E1
:1005500000FB11407F49B0FBF1F030307B498870DF
:100560002E20C8707B48B4FBF0F100FB114042F232
:100570001071B0FBF1F030307449087142F2107024
:10058000B4FBF0F100FB11404FF47A71B0FBF1F0D5
:1005900030306E4948714FF47A70B4FBF0F100FBD3
:1005A00011406421B0FBF1F030306849887164205B
:1005B000B4FBF0F100FB11400A21B0FBF1F0303048
:1005C0006249C8710A20B4FBF0F100FB11403030E1
:1005D0005E490872412048724149404800680BF06A
:1005E000F1FE06460BF0A4FE04465B48B4FBF0F0B7
:1005F0003030564988725848B4FBF0F100FB114086
:100600005349B0FBF1F030305049C8725048B4FB48
:10061000F0F100E08FE200FB11404E49B0FBF1F039
:1006200030304A4908732E2048734A48B4FBF0F131
:1006300000FB114042F21071B0FBF1F03030434941
:10064000887342F21070B4FBF0F100FB11404FF4DC
:100650007A71B0FBF1F030303C49C8734FF47A70D6
:10066000B4FBF0F100FB11406421B0FBF1F030303D
:10067000364908746420B4FBF0F100FB11400A21F4
:10068000B0FBF1F03030314948740A20B4FBF0F18E
:1006900000FB114030302D4988744220C87400207E
:1006A00013490860084600680BF09CFCCDE9000186
:1006B00054E00000000000204750535F74657374DD
:1006C0002E5458540000000024050020256400002A
:1006D000100100202000000000401C468001002086
:1006E0000050C34784010020000020415801002031
:1006F0005C01002054010020880100200000C84255
:100700008C0100200A00000088812242F0020020B3
:100710000E0100205C5C5C5C5C5C5C5C5C5C000012
:1007200014010020A0012142496E69745F534420E6
:100730004F4B0000496E69745F5344204552524F3D
:100740005200000094010020400100208E00002093
:1007500040420F00A086010080969800FFA00CC8C0
:1007600000980BF091FB10D22D20FE490875FE4930
:10077000FE4800680BF026FE074600210BF0CBFE7A
:1007800006460BF0D5FD04460BE03020F549087510
:10079000F549F64800680BF015FE06460BF0C8FD5B
:1007A000044642F21070B4FBF0F100FB11404FF42C
:1007B0007A71B0FBF1F03030EA4948754FF47A7045
:1007C000B4FBF0F100FB11406421B0FBF1F03030DC
:1007D000E44988756420B4FBF0F100FB11400A2164
:1007E000B0FBF1F03030DF49C8752E2008760A20C2
:1007F000B4FBF0F100FB11403030DA494876432079
:100800008876DB4800680BF0EDFBCDE90001D3A052
:100810000CC800980BF038FB10D22D20D149C876B7
:10082000D149D34800680BF0CDFD074600210BF0FD
:1008300072FE06460BF07CFD04460BE03020C949F1
:10084000C876C949CA4800680BF0BCFD06460BF0E3
:100850006FFD044642F21070B4FBF0F100FB114052
:100860004FF47A71B0FBF1F03030BE4908774FF4A5
:100870007A70B4FBF0F100FB11406421B0FBF1F0A1
:100880003030B84948776420B4FBF0F100FB1140E8
:100890000A21B0FBF1F03030B24988772E20C877BA
:1008A0000A20B4FBF0F100FB11403030AD4981F873
:1008B0002000442081F82100AE4800884FF47A716E
:1008C00090FBF1F03030A74981F82200A948008858
:1008D0004FF47A7190FBF1F201FB1200642190FB5E
:1008E000F1F030309F4981F82300A248008864214C
:1008F00090FBF1F201FB12000A2190FBF1F0303085
:10090000984981F824009B4800880A2190FBF1F265
:1009100001FB12003030934981F82500452081F811
:1009200026009548008800EB80004004050C4FF439
:100930007A7095FBF0F0303081F827004FF47A7030
:1009400095FBF0F100FB1150642190FBF1F0303089
:10095000844981F82800642095FBF0F100FB1150D8
:100960000A2190FBF1F030307E4981F829002E20D9
:1009700081F82A000A2095FBF0F100FB115030307D
:10098000784981F82B00462081F82C007B480078BC
:100990000A2190FBF1F03030724981F82D00774840
:1009A00000780A2190FBF1F201FB120030306D4912
:1009B00081F82E00472081F82F00714971480068A6
:1009C0000BF000FD06460BF0B3FC04466E48B4FB8A
:1009D000F0F100FB114042F21071B0FBF1F0303049
:1009E000604981F8300042F21070B4FBF0F100FB76
:1009F00011404FF47A71B0FBF1F03030594981F871
:100A000031004FF47A70B4FBF0F100FB1140642127
:100A1000B0FBF1F03030534981F832002E2081F8DC
:100A200033006420B4FBF0F100FB11400A21B0FB5D
:100A3000F1F030304B4981F834000A20B4FBF0F17A
:100A400000FB11403030474981F83500482081F8DB
:100A500036004E4805884FF47A7095FBF0F0303040
:100A600081F837004FF47A7095FBF0F100FB1150DC
:100A7000642190FBF1F030303A4981F8380064206D
:100A800095FBF0F100FB11500A2190FBF1F03030A2
:100A9000344981F839000A2095FBF0F100FB115030
:100AA0003030304981F83A00492081F83B0038481D
:100AB00005884FF47A7095FBF0F0303081F83C00F7
:100AC0004FF47A7095FBF0F100FB1150642190FB1C
:100AD000F1F03030234981F83D00642095FBF0F1BE
:100AE00000FB11500A2190FBF1F030301D4981F8D4
:100AF0003E000A2095FBF0F100FB115030301949FF
:100B000081F83F00212081F840002249154804F077
:100B10006FFE1E211F4805F059F81FA31022CDE9D2
:100B200000231346C8228C21002003F000FD4FF45F
:100B300078401C490880BDE8FC817CB55024002524
:100B40001F20184908800C48028817A11A4809F08C
:100B5000D3FA194B1022CDE900232FE0000000004A
:100B6000000000008E000020000020415C010020F9
:100B7000540100203E0100202001002088010020B7
:100B80000000C8428C010020A08601002201002044
:100B9000A20100200E00002053656E64696E672E6E
:100BA0002E2E00004001002057696E644469724493
:100BB0003A25642020202000980700201346C822F0
:100BC0002946204603F0B3FC9B4802889BA19F481E
:100BD00009F092FA9D4B1022CDE900231346C8225A
:100BE00005F11401204603F0A2FC994800680BF0BF
:100BF000F9F90B460246CDE9000196A1934809F0A8
:100C00007BFA924B1022CDE900231346C82205F14E
:100C10002801204603F08BFC924800680BF0E2F9B3
:100C20000B460246CDE900018FA1884809F064FA1D
:100C3000864B1022CDE900231346C82205F13C0162
:100C4000204603F074FC8C4802788CA17F4809F0A0
:100C500053FA7E4B1022CDE900231346C82205F13A
:100C60005001204603F063FC884800680BF0BAF995
:100C70000B460246CDE9000185A1744809F03CFA13
:100C8000724B1022CDE900231346C82205F16401FE
:100C9000204603F04CFC824800680BF0A3F90B4699
:100CA0000246CDE900017FA1684809F025FA674BAB
:100CB0001022CDE900231346C82205F17801204611
:100CC00003F035FC7C4800680BF08CF90B460246BB
:100CD000CDE9000179A15D4809F00EFA5B4B1022C5
:100CE000CDE900231346C82205F18C01204603F00C
:100CF0001EFC7748028877A1544809F0FDF9534B50
:100D00001022CDE900231346C82205F1A001204698
:100D100003F00DFC7648028876A14C4809F0ECF906
:100D20004A4B1022CDE900231346C82205F1B40135
:100D3000204603F0FCFB7548028875A1434809F082
:100D4000DBF9424B1022CDE900231346C82205F1FE
:100D5000C801204603F0EBFB7348028873A13B48AF
:100D600009F0CAF9394B1022CDE900231346C822F5
:100D700005F1DC01204603F0DAFB4FF478407049BE
:100D800008807CBD1CB50024092000F04FFA4820E3
:100D900000F0E6F84FF41651482000F00DFB4FF438
:100DA0001651242003F0D4FC00BF00F0D3FB00F068
:100DB00087FB4FF478406249088063214FF4347018
:100DC00000F0BBFC05F0BEF901F090F800BF4FF455
:100DD000FA6000F0DCF82EE0601C84B2012000F024
:100DE000D6F84FF4FA7094FBF0F100FB1140B8B95B
:100DF0005448006808B9012000E00020514908600B
:100E00005148027851A1114809F076F90F4B102290
:100E1000CDE900231346C8220021084603F087FBD2
:100E20004FF4FA7094FBF0F100FB114018B905F093
:100E30006EF805F0D0F8CFE72201002046616E5031
:100E40006F73443A2564202020200000980700207A
:100E50005C010020726F6C6C3A25352E31662020C3
:100E600020200000540100207961773A25352E3189
:100E700066202020000000008801002073766E7537
:100E80006D3A253264202020200000008C010020D3
:100E900073706565643A25352E3266202020200067
:100EA000800100206C6F6E6769747564653A252E49
:100EB0003566202020202000840100206C617469A8
:100EC000747564653A252E356620202020200000A8
:100ED000A2010020476F616C436F6D7073447269AB
:100EE0005F50433A2564202020202020000000008D
:100EF000A6010020476F616C53746565725F5043B3
:100F00003A2564202020202020000000A401002099
:100F1000476F616C53706565645F50433A25642088
:100F200020202020200000003E0100204672657134
:100F300075656E63653A256420202020202000001E
:100F40004001002088812242920100204770727384
:100F500053746174653D3A256420202020200000F0
:100F60004FF0E021096921F004014FF0E022116106
:100F70000146C21700EB5272D2101F4B1A7019466D
:100F800009784FF47A7251439A1C118070471A4ABB
:100F9000921C128842434FF0E0235A6100229A616A
:100FA00001221A6100BF4FF0E022116911F0010F18
:100FB00002D011F4803FF6D000224FF0E0231A61F6
:100FC0009A6170470C4A127842434FF0E0235A610D
:100FD00000229A6101221A6100BF4FF0E0221169DC
:100FE00011F0010F02D011F4803FF6D000224FF033
:100FF000E0231A619A61704724010020AC4A0A403C
:101000000243AC4B1A607047072323EA0002120226
:10101000A84B1B1D19684FF6FF031940A64B194337
:1010200011434FF0E023C3F80C1D70472DE9F04742
:1010300004460D4616461F463046F11706EB9171E1
:101040004FEAA109F11706EB91718910A6EB810116
:1010500001F0FF0A042101EBCA0000F0FF0A384644
:10106000FFF7D2FFC7F1040004FA00F80F2038415F
:10107000284040EA080808F00F08202E09DA8F48B7
:1010800000680121B14008434FF0E021C1F80001A0
:101090000BE08A48001D0168A6F120020120904063
:1010A00001434FF0E020C0F80411854850F82900B2
:1010B00008FA0AF10143824840F82910BDE8F08798
:1010C00070B50D46CE1701EB9676B310CE1701EB37
:1010D0009676B610A1EB8606B606340E794DAD694C
:1010E00045F00105774EB5614FEAB63555F82360F6
:1010F0000F25A540AE43744D45F8236055F82350A5
:1011000000FA04F63543704E46F823506F4D2E68B2
:1011100001258D402E436C4D083DC5F8006412F04A
:10112000010F09D0694D0C352E6801258D402E43E5
:10113000654D083DC5F80C6412F0020F09D0634DEF
:1011400008352E6801258D402E435F4D083DC5F8BA
:10115000086470BD00B500205A490861C8601420B9
:10116000486100208861C8610846006840F00100BD
:101170000860084640685649084052494860084699
:101180000068544908404F4908600846006820F448
:10119000802008600846406820F4FE004860002077
:1011A000886000214FF00060FFF728FF00BD10B5F8
:1011B00040480830006840F004004FF0E021C1F8DA
:1011C000100D4048C06940F080503E49C861424817
:1011D000406840F48070404948600846006840F02C
:1011E000040008600846006840F002000860FFF74D
:1011F00041F810BD3048001D2E49091D0860704798
:101200000146084649062F4A926942F001022D4BD9
:101210009A612D4A083A526822F0E0622A4B083B54
:101220005A601A4652680A435A60704730B50446FD
:101230000025FFF78FFF2348006840F480302149E4
:10124000086000BF1F480068400CFBD04FF480606E
:101250001C494860A01EC4B20846406840EA844069
:1012600048600846406840F4803048601B48006889
:1012700040F03200194908601248006840F0807060
:101280001049086000BF0F480068400EFBD00D48B1
:10129000406840F002000B49486005E0094840689A
:1012A000C0F3870505F00305022DF7D130BD00001E
:1012B00080FFFF1F08ED00E00000FA0500E100E0FC
:1012C00000E400E00010024008000140000401407A
:1012D0000000FFF8FFFFF6FE007000400020024013
:1012E000014600BF704700BF6C4A128812F0400FE1
:1012F000FAD0C2B2694B1B1D1A8070476749098832
:1013000011F0200F57D06549091D0988C8B2A528DA
:101310000DD16349097841F08001614A1170614A39
:1013200011784A1C5F4B1A705F4A50543AE05A28B1
:101330001CD15B49097811F0800F09D00021594A6E
:1013400011705749097821F04001554A117006E0A3
:10135000544A11784A1C534B1A70534A50545049FE
:10136000097821F080014E4A11701BE04D4A117836
:101370004A1C4C4B1A704C4A50544949097821F088
:101380008001474A1170484909781A4612789142FB
:1013900008D100211A4611704149097841F04001F5
:1013A0003F4A11703F490978642904D13D490978C1
:1013B000491E3C4A117070472DE9F05F04460D4606
:1013C00028010AF0FAFF8146384904FB01F00AF0CF
:1013D000F4FF824649460AF0B9FE064630460AF056
:1013E000A7FF87B238460AF0E8FF834631460BF084
:1013F00092F882464FF083410AF0E4FF81460AF0FA
:1014000097FF80463F0107EB080087B228488069B4
:1014100040F00400264988610846806940F4804015
:1014200088612448006820F47F602349C1F80408DB
:101430000846D0F8040840F40B60C1F804081C48C2
:10144000C06840F480401A49C8600846C06820F46B
:101450008040C8601948A0F8087810480C3000880F
:1014600042F20C0108431549A1F80C080846B0F8EF
:101470000C0840F48070A1F80C080846B0F80C087D
:1014800040F0200005490C31088002232522032169
:101490000846FFF7CBFDBDE8F09F00000038014093
:1014A0005101002050010020300F002040420F0069
:1014B00000100240040801400000014000300140DB
:1014C0001B48806940F0040019498861084680691A
:1014D00040F0200088611748006820F00F0016498E
:1014E000C1F804080846D0F8040840F00300C1F829
:1014F00004080846D0F80C0840F48070C1F80C08C5
:101500000E48D0F8000420F470600C49C1F80004C3
:101510000846D0F8000440F44070C1F800040846C2
:10152000D0F80C0440F00400C1F80C04704700002F
:10153000001002400408014000000140001001407A
:101540001A480088401C194908804FF40040184987
:101550000860704710B51748806940F004001549CD
:1015600088610220FFF74CFE1348006820F07040AD
:101570001249C1F804080846D0F8040840F00040B9
:10158000C1F804080846D0F80C0840F40040C1F83F
:101590000C0802220F210020FFF792FD02232822CF
:1015A00001211846FFF742FD10BD00003001002068
:1015B00014040140001002400408014000000140F2
:1015C00045F255523B4B1A601A46506091604AF6FC
:1015D000AA221A604CF6CC421A6070474AF6AA203A
:1015E00034490860704770B504460D4616463248C7
:1015F000C06940F400603049C8613049097804EAA4
:1016000001002E4908702E48006840EAC6102D4996
:10161000C1F8040C0846D0F8040C40F40070C1F87E
:10162000040C274800684FF6807108402549C1F82E
:10163000040C0846D0F8040C2843C1F8040C2048D8
:10164000001F00681D49097841F0800108431D49C9
:10165000C1F8000C0223002203211846FFF7E6FC24
:1016600070BD1749091F096800F07F021143154A30
:10167000C2F8001C704710B51148006800F07F03E5
:101680001048D0F8000C00F07F049C4203DA0B48AD
:101690000078FFF7E6FF00200949091D08600A48A5
:1016A000D0F8880108B9012000E00020074908604F
:1016B00010BD000000300040001002403201002048
:1016C000042C0040002000400080224288812242F9
:1016D0005848008810F0010F26D05748007801289C
:1016E00004D156480088401C54490880544800885A
:1016F00052490988884204DA00204F4908704F494E
:10170000088050480088401C4E49088008460088E0
:10171000B0F57A7F08D1002008804B4800884B49FB
:1017200008800020484908804248008820F00100D5
:101730004FF08041A1F81004704770B504460D4683
:101740004348C06940F002004149C86139481C3033
:1017500004808804A0F82854B0F80C0440F001007C
:101760008904A1F80C040846B0F80C0440F04000CD
:10177000A1F80C040846B0F8000440F00100A1F8FC
:10178000000402231D2203210120FFF74FFC70BD3E
:101790002F4AD26942F002022D4BDA612D4A1268BB
:1017A00022F00F022C4BC3F804281A46D2F8042862
:1017B00042F00402C3F804281A46D2F8002822F0A6
:1017C0007042C3F800281A46D2F8002842F030428E
:1017D000C3F800281A46D2F80C2842F08002C3F859
:1017E0000C289A03A2F82C04A2F82814B2F81824A2
:1017F00042F4E0429B03A3F818241A46B2F81824D6
:1018000042F40062A3F818241A46B2F8202442F0E9
:101810001002084B10331A80DA13D303A3F8002404
:10182000D203B2F8002442F00102024B103B1A80AE
:1018300070470000100400403601002038010020ED
:101840003A0100203C010020300100203E01002030
:101850000010024004080140000001404FF4807174
:10186000FF4A516149005161FE4908608021516180
:10187000116189001161704710B54FF08830F94946
:101880000C390860F849C1F8040C0020F5490860DB
:101890008815F34908614000486140204861F348D9
:1018A0008088A0F50941893902D10220FFF78AFB1F
:1018B0004020EB490861EB48001F006884B24815DE
:1018C00008614FF03330E849C1F8000CE5490839A8
:1018D00008604FF6FF70E449C1F80C0C204610BDBB
:1018E00010B504460B462046FFF7B8FF4FF4807052
:1018F000DB49086140004861DA48036080204861A4
:1019000008618000086110BD10B504462046FFF74D
:10191000A5FFFFF7B1FF10BD00B5D449C879FFF7A7
:101920009DFF00BD4FF48071CD4A116149005161A6
:10193000CC490860802151611161890011617047B3
:1019400030B5014601F01F04C1F34513CA0AE50290
:1019500005EB43151544A8B230BD2DE9F04104460E
:101960000D46C2480088A04203DDC0484088A84216
:1019700002DC0020BDE8F0812946204609F034FF52
:10198000BA488088A0F51341413905D0B74880880E
:10199000A0F5D041043903D12E20FFF75FFF02E00C
:1019A0002220FFF75BFF4FF08830AE490C3908600A
:1019B000AD49C1F8040C4FF6FF70AA4908608815BC
:1019C000A749086140004861402048610120FFF7B5
:1019D000F9FA4020A249086148610120FFF7F2FAB4
:1019E00040209F4908619F48001F006886B29F48B9
:1019F0008088A0F5134141390BD1402098494861B6
:101A000008619848001F00681FFA80F8F7B23F028B
:101A10000DE096488088A0F5D041043907D14020D8
:101A20008F49486108618F48001F006886B24FF4F3
:101A300000708B4908614FF033308A490C390860D7
:101A40008949C1F8040C4FF6FF70C1F80C0C8748A7
:101A50008088A0F51341253917D084488088A0F5E7
:101A60008A41353911D081488088A0F58A413139C1
:101A70000BD07E488088A0F50941893905D07B4884
:101A80008088A0F53541053901D1304672E77748A5
:101A90008088A0F51341413907D1F012C002B91274
:101AA00040EA411040EAE82064E73046FFF748FF8B
:101AB00060E700B56D488088A0F51341413905D035
:101AC0006A488088A0F5D041043903D12920FFF766
:101AD000C5FE04E040F273110720FFF701FF00BDCF
:101AE00000B562488088A0F51341413905D05F48B0
:101AF0008088A0F5D041043903D12820FFF7AEFE3D
:101B000003E000210720FFF7EBFE00BDF0B504461F
:101B1000002500275548807901281ED15348808828
:101B2000A0F5D041043918D0082C15D2DFE804F014
:101B30000406080A0C0E101206240DE007240BE020
:101B4000042409E0052407E0012405E0002403E063
:101B5000032401E0022400BF00BF44488088A0F5B0
:101B60001341413905D041488088A0F5D04104395E
:101B700075D1082C1CD2DFE804F00406090C0F1202
:101B8000151800BF14E045F0800511E045F0400550
:101B90000EE045F0C0050BE045F0200508E045F0FB
:101BA000600505E045F0A00502E045F0E00500BF56
:101BB00000BF362745F008052C488088A0F5D041A5
:101BC000043901D145F0020529463846FFF788FE61
:101BD00015F0200F0DD025480088244949888842F7
:101BE00014DA224806884088204908800846468042
:101BF0000CE01E4800881D494988884206DD1B48C4
:101C00000688408819490880084646801749087A9E
:101C1000FFF724FE4FF480701149086140004861CD
:101C200000201049086080200D494861086180004B
:101C30000861401008614000486100200A49C1F86D
:101C40000C0C802006494861086180000861401042
:101C500008614000486105480088401E08E061E0D6
:101C6000001001400C0C014000000140E008002081
:101C70000012FF4908608020FE4948610861800029
:101C800008614010086140004861FB480088401E20
:101C9000C0B2F74908608020F649486108618000B9
:101CA0000861F549487AFFF7D9FD4FF48070F14992
:101CB0000861400048610020ED4908608020ED493E
:101CC0004861086180000861401008614000486177
:101CD0000020E74908608020E649486108618000EB
:101CE00008614010086140004861E3484088401E98
:101CF0000012DF4908608020DE49486108618000E9
:101D000008614010086140004861DB484088401E7F
:101D1000C0B2D74908608020D64948610861800078
:101D2000086131E0082C1CD2DFE804F004070A0D3A
:101D30000F12151845F0300513E045F0100510E0BE
:101D400045F020050DE000BF0BE045F0380508E048
:101D500045F0280505E045F0180502E045F00805C6
:101D600000BF00BFC4488088A0F50941893904D16B
:101D7000112746F24000054302E0032745F4805551
:101D800029463846FFF7ACFDF0BD70B504460D4658
:101D90002946204609F028FDFFF7BEFD4FF480706C
:101DA000B449086140004861B4480088B0490860FF
:101DB0008020B049486108618000086170BD10B59D
:101DC0000446002C3DD1AC498871F02008804FF4C6
:101DD000A070488008468088A0F51341413905D09D
:101DE000A5488088A0F5D041043914D12C20A249FF
:101DF000C8712A2008722B20487208468088A0F5F6
:101E0000D04104394ED14FF4A0709B4908804FF463
:101E1000F070488046E098488088A0F509418939EB
:101E200007D122209449C8714E2008724F20487271
:101E300038E022209049C871202008722120487281
:101E400030E08D488088A0F5D04104392AD00120A7
:101E5000894988714FF4A0700880F02048800846B6
:101E60008088A0F51341413907D12C208249C871DF
:101E70002A2008722B20487214E07F488088A0F541
:101E80000941893907D122207B49C8714F20087246
:101E90004E20487206E022207749C871212008723E
:101EA000202048720020FFF731FE10BD70B50446B7
:101EB000002671480588408845430021084609F0FE
:101EC00093FCFFF729FD00BF0DE04FF480706949D6
:101ED00008614000486166480460802048610861EC
:101EE00080000861761CAE42EFD370BD10B5644827
:101EF000806940F00800624988610846806940F0C6
:101F0000100088610846806940F001008861012066
:101F1000FFF776F9574840686FF30B005549486062
:101F20000846406840F23331084352494860084649
:101F3000006820F07F4008600846006840F04C5080
:101F400008600846C06840F4F860C8604FF033305D
:101F50004749083908604B49C1F8000C4FF6FF703B
:101F6000434908603220FFF712F801210020FFF7F3
:101F7000B7FC3220FFF70BF80020FFF7C5FC3E4905
:101F8000888008468088FF280ADB08468088A0F5FC
:101F90007F41FF3904D038488088B0F5134F45D1D0
:101FA000D320FFF75BFCFFF767FCFFF765FCFFF74B
:101FB00063FC31498880084680880006000C8880D0
:101FC000FFF75AFC2C49898808432B49888008462A
:101FD0008088A0F51341413918D0BF20FFF73EFC9F
:101FE000FFF74AFCFFF748FCFFF746FCFFF744FC0D
:101FF00021498880084680880006000C8880FFF709
:102000003BFC1D49898808431B4988801A48808801
:10201000A0F51341413909D017488088A0F5D04177
:10202000043903D049F2413013498880124881882D
:1020300015A008F047F810488088A0F513414139F1
:102040007ED1CF20FFF70AFC4FF480700949086168
:102050004000486100200649086080200549486129
:10206000086180000861401008614000486113E089
:102070000C0C014000100140E0080020400100204D
:102080000010024000000140204C43442049443AE3
:1020900025780D0A00000000C120FF49C1F80C0C92
:1020A0008020FE4948610861800008614010086195
:1020B000400048613020FA4908608020F7494861B3
:1020C000086180000861ED20FFF7C8FB4FF48070C5
:1020D000F2490861400048616420F14908608020AD
:1020E000EE494861086180000861401008614000C5
:1020F00048610320EA4908608020E8494861086196
:102100008000086140100861400048611220E449E5
:1021100008608020E1494861086180000861401042
:102120000861400048618120DD4908608020DB496A
:102130004861086180000861E820FFF78FFB00E03C
:1021400091E34FF48070D5490861400048618520D3
:10215000D34908608020D149486108618000086146
:1021600040100861400048611020CD49086080207F
:10217000CA49486108618000086140100861400058
:1021800048617A20C64908608020C44948610861D6
:1021900080000861CB20FFF761FB4FF48070BF49DE
:1021A0000861400048613920BD4908608020BB4972
:1021B0004861086180000861401008614000486182
:1021C0002C20B74908608020B4494861086180002C
:1021D000086140100861400048610020B049086073
:1021E0008020AE49486108618000086140100861A4
:1021F000400048613420AA4908608020A74948610E
:1022000008618000086140100861400048610220B8
:10221000A34908608020A1494861086180000861E5
:10222000F720FFF71BFB4FF480709C4908614000CA
:10223000486120209A4908608020984948610861D7
:1022400080000861EA20FFF709FB4FF48070934992
:1022500008614000486100209149086080208F4952
:1022600048610861800008614010086140004861D1
:1022700000208B49086080208849486108618000FF
:102280000861C020FFF7EAFA4FF4807083490861C3
:10229000400048611B208249086080207F494861D6
:1022A000086180000861C120FFF7D8FA4FF4807000
:1022B0007A4908614000486101207949086080201E
:1022C00076494861086180000861C520FFF7C6FAB9
:1022D0004FF48070714908614000486130207049B6
:1022E000086080206D4948610861800008614010E5
:1022F00008614000486130206749C1F80C0C80201B
:1023000066494861086180000861C720FFF7A6FAA6
:102310004FF480706149086140004861B72060490E
:10232000086080205D4948610861800008613620AE
:10233000FFF794FA4FF480705849086140004861F3
:10234000482057490860802054494861086180004E
:1023500008613A20FFF782FA4FF480704F49086114
:102360004000486155204E49086080204B49486133
:10237000086180000861B120FFF770FA4FF48070A7
:1023800046490861400048610020454908608020B6
:1023900042494861086180000861401008614000BE
:1023A00048611A203E49086080203C494861086124
:1023B00080000861B620FFF751FA4FF4807037496A
:1023C0000861400048610A2035490860802033498F
:1023D0004861086180000861401008614000486160
:1023E000A2202F49086080202C49486108618000A4
:1023F0000861F220FFF732FA4FF480702749086134
:102400004000486100202649086080202349486137
:102410000861800008612620FFF720FA4FF48070E1
:102420001E4908614000486101201D490860802064
:102430001A494861086180000861E020FFF70EFA40
:102440004FF4807015490861400048610F2014491D
:1024500008608020114948610861800008614010CF
:102460000861400048612A200D49086080200B491E
:1024700048610861800008614010086140004861BF
:1024800028200749086080200449486108618000CD
:1024900008614010086105E00000014000100140A3
:1024A0000C0C0140400048610820FF490860802072
:1024B000FE494861086180000861401008614000E1
:1024C00048610E20F84908608020F8494861086199
:1024D0008000086140100861400048610820F2490E
:1024E00008608020F149486108618000086140105F
:1024F0000861400048615420EB4908608020EB49A6
:10250000486108618000086140100861400048612E
:10251000A920E54908608020E449486108618000FD
:10252000086140100861400048614320DE490860AE
:102530008020DE4948610861800008614010086120
:10254000400048610A20D84908608020D749486186
:1025500008618000086140100861400048610F2058
:10256000D14908608020D149486108618000086134
:1025700040100861400048610020CD49C1F80C0CB2
:102580008020CA49486108618000086140100861E4
:10259000400048610020C44908608020C349486168
:1025A0000861800008614010086140004861002017
:1025B000BD4908608020BD4948610861800008610C
:1025C00040100861400048610020B7490860802041
:1025D000B6494861086180000861E120FFF73EF9D3
:1025E0004FF48070B1490861400048610020AE4955
:1025F00008608020AD494861086180000861401092
:102600000861400048611520A74908608020A7495B
:10261000486108618000086140100861400048611D
:102620001720A14908608020A04948610861800006
:102630000861401008614000486107209A4908601D
:1026400080209A4948610861800008614010086153
:1026500040004861112094490860802093494861F6
:102660000861800008614010086140004861062050
:102670008D49086080208D494861086180000861AB
:1026800040100861400048612B2087490860802085
:102690008649486108618000086140100861400077
:1026A000486156208049086080208049486108615F
:1026B0008000086140100861400048613C207A4970
:1026C00008608020794948610861800008614010F5
:1026D0000861400048610520734908608020734903
:1026E000486108618000086140100861400048614D
:1026F00010206D49086080206C49486108618000A5
:10270000086140100861400048610F206649086078
:1027100080206649486108618000086140100861B6
:10272000400048613F206049086080205F4948615F
:1027300008618000086140100861400048613F2046
:102740005949086080205949486108618000086142
:1027500040100861400048610F2053490860802004
:10276000524948610861800008612B20FFF776F824
:102770004FF480704D4908614000486100204A498B
:102780000860802049494861086180000861401064
:1027900008614000486100204349086080204349A7
:1027A000486108618000086140100861400048618C
:1027B00001203F49C1F80C0C80203C494861086168
:1027C0008000086140100861400048613F203649A0
:1027D00008608020354948610861800008612A202E
:1027E000FFF73CF84FF480703049086140004861C1
:1027F00000202D49086080202C4948610861800034
:1028000008614010086140004861002026490860C6
:1028100080202649486108618000086140100861F5
:102820004000486100202049086080201F4948611D
:102830000861800008614010086140004861EF2095
:1028400019490860802019494861086180000861C1
:102850001120FFF703F87820FEF799FB2920FEF7F7
:10286000FDFF01F0C4BB13488088A0F5D0410439B6
:102870007ED11120FEF7F2FF1420FEF788FBD02056
:10288000FEF7ECFF4FF48070084908614000486192
:1028900007200549086080200449486108618000DC
:1028A00008614010086107E00C0C01400010014075
:1028B00000000140E0080020400048614220FF493C
:1028C000C1F80C0C8020FE49486108618000086155
:1028D00040100861400048611D20FA4908608020CE
:1028E000F7494861086180000861D120FEF7B6FF12
:1028F0004FF48070F2490861400048610020F149BE
:1029000008608020EE49486108618000086140103D
:102910000861400048611A20EA4908608020E849BF
:10292000486108618000086140100861400048610A
:102930000920E44908608020E1494861086180007D
:102940000861D220FEF78AFF4FF48070DC490861ED
:10295000400048610120DB4908608020D849486177
:10296000086180000861401008614000486100E093
:10297000DAE12220D34908608020D149486108610A
:1029800080000861C020FEF769FF4FF48070CC49D9
:102990000861400048611020CA4908608020C84989
:1029A000486108618000086140100861400048618A
:1029B0003B20C44908608020C1494861086180000B
:1029C000086140100861400048610020BD4908606E
:1029D0008020BB494861086180000861401008619F
:1029E000400048610220B74908608020B44948612E
:1029F00008618000086140100861400048611120B2
:102A0000B04908608020AE494861086180000861D3
:102A1000C520FEF723FF4FF48070A94908614000EC
:102A200048610320A74908608020A54948610861E2
:102A300080000861C820FEF711FF4FF48070A049A4
:102A400008614000486100209E49086080209C4940
:102A500048610861800008614010086140004861D9
:102A600025209849086080209549486108618000C8
:102A700008614010086140004861212091490860C8
:102A800080208F494861086180000861401008611A
:102A90004000486105208B490860802088494861D2
:102AA0000861800008614010086140004861002012
:102AB000844908608020824948610861800008617B
:102AC00040100861400048610A207E49086080206B
:102AD0007B4948610861800008614010086140003E
:102AE0004861652077490860802075494861086120
:102AF00080000861401008614000486125206F494E
:102B0000C1F80C0C80206E494861086180000861A2
:102B1000401008614000486177206A4908608020C1
:102B20006749486108618000086140100861400001
:102B3000486150206349086080206149486108610C
:102B40008000086140100861400048610F205D4925
:102B5000086080205A49486108618000086140107F
:102B600008614000486100205649086080205449AF
:102B70004861086180000861F820FEF76FFE4FF49D
:102B800080704F4908614000486101204D4908604C
:102B900080204B494861086180000861FE20FEF7F3
:102BA0005DFE4FF480704649086140004861002096
:102BB00044490860802042494861086180000861FA
:102BC000401008614000486102203E4908608020B2
:102BD0003B4948610861800008612020FEF73EFE05
:102BE0003620FEF73BFE4FF4807035490861400007
:102BF00048610820334908608020314948610861F4
:102C0000800008613A20FEF729FE4FF480702C49BD
:102C100008614000486155202A4908608020284901
:102C200048610861800008612B20FEF717FE4FF411
:102C300080702349086140004861002021490860F4
:102C400080201F49486108618000086140100861C8
:102C50004000486100201B490860802018494861F5
:102C6000086180000861401008614000486101204F
:102C70001449086080201249486108618000086199
:102C800040100861400048613F200E4908608020E4
:102C90000B4948610861800008612A20FEF7DEFDCB
:102CA0004FF48070064908614000486100200549E2
:102CB0000860802002494861086105E00000014089
:102CC000001001400C0C01408000086140100861B8
:102CD000400048610020FF4908608020FE494861AB
:102CE00008618000086140100861400048610120CF
:102CF000F84908608020F84948610861800008614F
:102D00004010086140004861DF20F24908608020DF
:102D1000F14948610861800008617820FEF737F9C1
:102D20002920FEF79BFD9CE5EC488088A0F5134127
:102D300025397ED147F6F001E520FEF7D1FD4FF4AD
:102D400080710120FEF7CCFD4FF4E0610220FEF718
:102D5000C7FD41F230010320FEF7C2FD002104202F
:102D6000FEF7BEFD40F202210820FEF7B9FD00216A
:102D70000920FEF7B5FD00210A20FEF7B1FD002174
:102D80000C20FEF7ADFD00210D20FEF7A9FD00216E
:102D90000F20FEF7A5FD00211020FEF7A1FD072161
:102DA0001120FEF79DFD00211220FEF799FD002164
:102DB0001320FEF795FD00210720FEF791FD41F25B
:102DC00090611020FEF78CFD40F227211120FEF7C4
:102DD00087FD9D211220FEF783FD4FF4C85113207B
:102DE000FEF77EFD25212920FEF77AFD0D212B20FF
:102DF000FEF776FD07213020FEF772FD40F2033129
:102E00003120FEF76DFD03213220FEF769FD40F20F
:102E100006213520FEF764FD08213620FEF760FD0F
:102E200040F206413720FEF75BFD4FF44171382038
:102E300000E057E0FEF754FD07213920FEF750FD72
:102E400040F202613C20FEF74BFD08213D20FEF7D9
:102E500047FD00215020FEF743FDEF215120FEF7F2
:102E60003FFD00215220FEF73BFD40F23F11532071
:102E7000FEF736FD4FF427416020FEF731FD0121BA
:102E80006120FEF72DFD00216A20FEF729FD0021BB
:102E90008020FEF725FD00218120FEF721FD002185
:102EA0008220FEF71DFD00218320FEF719FD002181
:102EB0008420FEF715FD00218520FEF711FD10216D
:102EC0009020FEF70DFD4FF4C0619220FEF708FD43
:102ED00040F233110720FEF703FD22210020FEF708
:102EE000FFFCBEE47D488088A0F5134128397ED1DF
:102EF00041F28F01EC20FEF7F3FC41F23421EF2088
:102F0000FEF7EEFC4FF480710120FEF7E9FC4FF470
:102F1000E0610220FEF7E4FC41F230010320FEF7FD
:102F2000DFFC00210420FEF7DBFC40F20221082038
:102F3000FEF7D6FC00210920FEF7D2FC00210A2072
:102F4000FEF7CEFC01210C20FEF7CAFC00210D206B
:102F5000FEF7C6FC00210F20FEF7C2FC0021102066
:102F6000FEF7BEFC07211120FEF7BAFC002112205B
:102F7000FEF7B6FC00211320FEF7B2FC012107206A
:102F8000FEF7AEFC3220FEF702F841F2904110202D
:102F9000FEF7A6FC40F227211120FEF7A1FC32200B
:102FA000FDF7F5FF8A211220FEF79AFC3220FDF78B
:102FB000EEFF4FF4D0511320FEF792FC062129209A
:102FC000FEF78EFC0D212B20FEF78AFC3220FDF748
:102FD000DEFF00212020FEF783FC00212120FEF7E8
:102FE0007FFC3220FDF7D3FF0021302000E07BE0A2
:102FF000FEF776FC40F204613120FEF771FC40F2EE
:1030000005313220FEF76CFC00213520FEF768FC0C
:1030100040F609413620FEF763FC4FF4017137207A
:10302000FEF75EFC40F201313820FEF759FC40F219
:1030300007713920FEF754FC00213C20FEF750FCBC
:1030400040F60A213D20FEF74BFC3220FDF79FFFA2
:1030500000215020FEF744FCEF215120FEF740FCF8
:1030600000215220FEF73CFC40F23F115320FEF7B6
:1030700037FC4FF427416020FEF732FC012161202C
:10308000FEF72EFC00216A20FEF72AFC002180209A
:10309000FEF726FC00218120FEF722FC0021822081
:1030A000FEF71EFC00218320FEF71AFC002184207D
:1030B000FEF716FC00218520FEF712FC102190205F
:1030C000FEF70EFC4FF4C0619220FEF709FC40F2BF
:1030D000331105E00C0C014000100140E008002015
:1030E0000720FEF7FDFB1EE6FF488088A0F5134190
:1030F00020397ED10846FEF7F3FB4FF480710120A2
:10310000FEF7EEFB4FF4E0610220FEF7E9FB41F22F
:1031100030010320FEF7E4FB00210420FEF7E0FB72
:1031200040F202210820FEF7DBFB00210920FEF718
:10313000D7FB00210A20FEF7D3FB01210C20FEF76C
:10314000CFFB00210D20FEF7CBFB00210F20FEF767
:10315000C7FB3220FDF71BFF40F201110720FEF7ED
:10316000BFFB3220FDF713FF4FF486511020FEF70E
:10317000B7FB07211120FEF7B3FB4FF48871122033
:10318000FEF7AEFB4FF430611320FEF7A9FB0021E0
:103190002920FEF7A5FB44F210012B20FEF7A0FB2F
:1031A00000215020FEF79CFBEF215120FEF798FBF9
:1031B00000215220FEF794FB40F23F115320FEF70E
:1031C0008FFB4FF41C516020FEF78AFB0121612028
:1031D000FEF786FB00216A20FEF782FB002180209B
:1031E000FEF77EFB00218120FEF77AFB0021822082
:1031F00000E02CE0FEF774FB00218320FEF770FB5B
:1032000000218420FEF76CFB00218520FEF768FB7F
:1032100010219020FEF764FB00219220FEF760FB56
:1032200001219320FEF75CFB4FF488719520FEF797
:1032300057FB00219720FEF753FB00219820FEF753
:103240004FFB40F273110720FEF74AFB6BE5A648DF
:103250008088A0F5134131397DD141F21401E72076
:10326000FEF73EFB4FF480710120FEF739FB4FF46F
:1032700000710220FEF734FB41F238010320FEF713
:103280002FFB40F202210820FEF72AFB0021092033
:10329000FEF726FB00210A20FEF722FB00210C206E
:1032A000FEF71EFB00210D20FEF71AFB00210F2068
:1032B000FEF716FB00211020FEF712FB072111205C
:1032C000FEF70EFB00211220FEF70AFB002113205F
:1032D000FEF706FBC820FDF75AFE41F29061102070
:1032E000FEF7FEFA40F227211120FEF7F9FA32200C
:1032F000FDF74DFE0C211220FEF7F2FA3220FDF709
:1033000046FE4FF400611320FEF7EAFA112129204E
:10331000FEF7E6FA0B212B20FEF7E2FA3220FDF74A
:1033200036FE00212020FEF7DBFA40F23F1121207B
:10333000FEF7D6FA00213020FEF7D2FA4FF483715F
:103340003120FEF7CDFA00213220FEF7C9FA4FF402
:103350000171352000E064E0FEF7C2FA41F20A6133
:103360003620FEF7BDFA40F207713720FEF7B8FAB3
:103370004FF483713820FEF7B3FA40F20771392019
:10338000FEF7AEFA40F202413C20FEF7A9FA40F601
:103390000F413D20FEF7A4FA00215020FEF7A0FACD
:1033A000EF215120FEF79CFA00215220FEF798FAF7
:1033B00040F23F115320FEF793FA4FF41C51602066
:1033C000FEF78EFA01216120FEF78AFA00216A20B9
:1033D000FEF786FA00218020FEF782FA0021812084
:1033E000FEF77EFA00218220FEF77AFA0021832080
:1033F000FEF776FA00218420FEF772FA002185207C
:10340000FEF76EFA10219020FEF76AFA4FF4C061C1
:103410009220FEF765FA40F233110720FEF760FABA
:1034200081E431488088A0F5A84108397DD14FF466
:1034300080710120FEF754FA4FF4E0610220FEF79C
:103440004FFA41F230010320FEF74AFA002104202E
:10345000FEF746FA40F207210820FEF741FA002164
:103460000920FEF73DFA00210A20FEF739FA002173
:103470000C20FEF735FA00210D20FEF731FA00216D
:103480000F20FEF72DFA1420FDF781FD41F2B06107
:103490001020FEF725FA01211120FEF721FA012163
:1034A0001720FEF71DFA4FF49C711220FEF718FA50
:1034B0004FF400611320FEF713FA09212920FEF7CB
:1034C0000FFA09212A20FEF70BFA0021A420FEF7AB
:1034D00007FA00215020FEF703FAEF215120FEF7F2
:1034E000FFF90021522001E0E0080020FEF7F8F982
:1034F00040F23F115320FEF7F3F94FF41C516020C6
:10350000FEF7EEF901216120FEF7EAF900216A20B9
:10351000FEF7E6F900218020FEF7E2F90021812084
:10352000FEF7DEF90021822000E027E0FEF7D8F95F
:1035300000218320FEF7D4F900218420FEF7D0F982
:1035400000218520FEF7CCF913219020FEF7C8F961
:1035500000219220FEF7C4F903219320FEF7C0F961
:103560004FF488719520FEF7BBF940F273110720E4
:10357000FEF7B6F93220FDF70AFDB2E4FF48808875
:10358000A0F5A85105397ED10720FEF7A9F9322010
:10359000FDF7FDFC4FF48E711220FEF7A1F9012119
:1035A000A420FEF79DF90F210820FEF799F90821C4
:1035B0000A20FEF795F908210D20FEF791F940F257
:1035C00007713020FEF78CF907213120FEF788F9CA
:1035D00040F203613220FEF783F94FF4E0613320BB
:1035E000FEF77EF940F202213420FEF779F902213C
:1035F0003520FEF775F941F60F713620FEF770F9A8
:1036000040F207713720FEF76BF900213820FEF7F2
:1036100067F900213920FEF763F940F207713A207B
:10362000FEF75EF900213B20FEF75AF907213C2006
:10363000FEF756F900213D20FEF752F93220FDF742
:10364000A6FC01210720FEF74BF901211720FEF708
:1036500047F93220FDF79BFC4FF4BD511020FEF7D7
:103660003FF940F217211120FEF73AF94FF48F711C
:103670001220FEF735F94FF470611320FEF730F990
:1036800000212A2000E093E0FEF72AF90A212920F0
:10369000FEF726F94FF49F711220FEF721F9002161
:1036A0005020FEF71DF9EF215120FEF719F90021F6
:1036B0005220FEF715F940F23F115320FEF710F9A2
:1036C0004FF41C516020FEF70BF901216120FEF739
:1036D00007F900216A20FEF703F900218020FEF798
:1036E000FFF800218120FEF7FBF800218220FEF781
:1036F000F7F800218320FEF7F3F800218420FEF77D
:10370000EFF800218520FEF7EBF813219020FEF75B
:10371000E7F84FF440719220FEF7E2F8052193207C
:10372000FEF7DEF800219520FEF7DAF80021972059
:10373000FEF7D6F800219820FEF7D2F84FF48071FA
:103740000120FEF7CDF84FF4E0610220FEF7C8F843
:1037500041F238010320FEF7C3F800210420FEF7F0
:10376000BFF800210C20FEF7BBF800210F20FEF768
:10377000B7F800212020FEF7B3F800212120FEF742
:10378000AFF821210720FEF7ABF81420FDF7FFFB6F
:1037900061210720FEF7A4F81420FDF7F8FB40F2A2
:1037A00073110720FEF79CF81420FDF7F0FB9AE454
:1037B00072488088A0F5354105397DD10846FEF76D
:1037C0008FF800210846FEF78BF800210846FEF727
:1037D00087F800210846FEF783F80121A420FEF7B0
:1037E0007FF81420FDF7D3FB4FF41C516020FEF747
:1037F00077F840F202210820FEF772F84FF40571C5
:103800003020FEF76DF843F215713120FEF768F8AD
:1038100040F204613220FEF763F840F6166133206F
:10382000FEF75EF842F211213420FEF759F84FF40A
:10383000A8513520FEF754F848F207513620FEF71C
:103840004FF841F207413720FEF74AF841F20341B1
:103850003820FEF745F820213920FEF741F81A21DB
:103860009020FEF73DF800211020FEF739F80721DF
:103870001120FEF735F800211220FEF731F8002163
:103880001320FEF72DF81420FDF781FB4FF4E661BD
:103890001020FEF725F840F237111120FEF720F82E
:1038A0001420FDF774FB4FF4DC711220FEF718F8BA
:1038B0001420FDF76CFB00E086E04FF470611320EC
:1038C000FEF70EF880212A20FEF70AF84821292069
:1038D000FEF706F81420FDF75AFB4FF48071012023
:1038E000FDF7FEFF4FF4E0610220FDF7F9FF41F222
:1038F00038010320FDF7F4FF40F202210820FDF714
:10390000EFFF00210A20FDF7EBFF00210C20FDF75F
:10391000E7FF00210D20FDF7E3FF30210E20FDF72A
:10392000DFFF00215020FDF7DBFFEF215120FDF7E5
:10393000D7FF00215220FDF7D3FF40F23F11532063
:10394000FDF7CEFF4FF41C516020FDF7C9FF0121A8
:103950006120FDF7C5FF00216A20FDF7C1FF11219D
:103960009020FDF7BDFF4FF4C0619220FDF7B8FF36
:1039700040F202419320FDF7B3FF01E0E008002090
:1039800002219420FDF7ACFF1420FDF700FB01217C
:103990000720FDF7A5FF1420FDF7F9FA61210720A4
:1039A000FDF79EFF40F273110720FDF799FF0021FC
:1039B0002020FDF795FF00212120FDF791FF222116
:1039C0000020FDF78DFF12E3FF488088A0F54541F8
:1039D00005397DD10846FDF783FF00210846FDF734
:1039E0007FFF1420FDF7D3FA00210846FDF778FF8A
:1039F00000210846FDF774FF00210846FDF770FF1F
:103A000000210846FDF76CFF0121A420FDF768FFA7
:103A10001420FDF7BCFA4FF41C516020FDF760FF45
:103A200040F606010820FDF75BFF40F203713020ED
:103A3000FDF756FF01213120FDF752FF042132200E
:103A4000FDF74EFF4FF481713320FDF749FF4FF42E
:103A500040713420FDF744FF40F203113520FDF79B
:103A60003FFF1F213620FDF73BFF40F20371372057
:103A7000FDF736FF01213820FDF732FF0421392000
:103A8000FDF72EFF15219020FDF72AFF4FF48261EC
:103A90001020FDF725FF40F247211120FDF720FF00
:103AA0004FF4DE711220FDF71BFF4FF4606113200D
:103AB000FDF716FF7820FDF76AFA4FF480710120B8
:103AC000FDF70EFF4FF400710220FDF709FF00E043
:103AD00050E041F230010320FDF702FF08210A20E7
:103AE000FDF7FEFE00210C20FDF7FAFE20210E203E
:103AF000FDF7F6FE00210F20FDF7F2FE0021202049
:103B0000FDF7EEFE00212120FDF7EAFE3D212A20EF
:103B1000FDF7E6FE1420FDF73AFA2D212920FDF7E6
:103B2000DFFE00215020FDF7DBFE4DF2EF015120BA
:103B3000FDF7D6FE00215220FDF7D2FE40F23F11E4
:103B40005320FDF7CDFE00216120FDF7C9FE0021C5
:103B50006A20FDF7C5FE4FF440719220FDF7C0FECC
:103B600005219320FDF7BCFE4FF480710720FDF77F
:103B7000B7FE3CE294488088A0F5094189397DD19F
:103B800001210020FDF7ACFE4AF6A4010320FDF759
:103B9000A7FE00210C20FDF7A3FE40F60C010D202E
:103BA000FDF79EFE4FF42C510E20FDF799FEB0213B
:103BB0001E20FDF795FE42F63F310120FDF790FEF5
:103BC0004FF4C0610220FDF78BFE00211020FDF7AD
:103BD00087FE46F278011120FDF782FE00210520C4
:103BE000FDF77EFE00210620FDF77AFE4EF61C71E1
:103BF0001620FDF775FE03211720FDF771FE40F238
:103C000033210720FDF76CFE00210B20FDF768FE35
:103C100000210F20FDF764FE00214120FDF760FE2A
:103C200000214220FDF75CFE00214820FDF758FEF0
:103C300040F23F114920FDF753FE00214A20FDF7D5
:103C40004FFE00214B20FDF74BFE4FF46F41442007
:103C5000FDF746FE00214520FDF742FE40F23F11F0
:103C60004620FDF73DFE40F207713020FDF738FE9B
:103C70004FF401713120FDF733FE00E03DE04FF4D9
:103C800001713220FDF72CFE40F202513320FDF786
:103C900027FE40F207513420FDF722FE4FF4017158
:103CA0003520FDF71DFE4FF401713620FDF718FE9B
:103CB00040F202513720FDF713FE40F202313A2064
:103CC000FDF70EFE40F202313B20FDF709FE002118
:103CD0002320FDF705FE00212420FDF701FE4FF40F
:103CE00000412520FDF7FCFD00214F20FDF7F8FDE8
:103CF00000214E20FDF7F4FD79E133488088A0F5DE
:103D00008A4131397ED101210020FDF7E9FD0A20E9
:103D1000FDF73DF941F228611020FDF7E1FD0E218C
:103D20001220FDF7DDFD40F639211320FDF7D8FD07
:103D30000A20FDF72CF940211120FDF7D1FD50217B
:103D40001520FDF7CDFD0A20FDF721F91E211220D7
:103D5000FDF7C6FD0A20FDF71AF94FF4B151102006
:103D6000FDF7BEFD42F639211320FDF7B9FD0A200B
:103D7000FDF70DF94FF480710120FDF7B1FD4FF40F
:103D800040710220FDF7ACFD41F238010320FDF740
:103D9000A7FD40F202210820FDF7A2FD08210A201C
:103DA000FDF79EFD00213020FDF79AFD40F2024113
:103DB0003120FDF795FD4FF483713220FDF790FD22
:103DC00040F20351332001E0E0080020FDF788FDB8
:103DD0004FF482713420FDF783FD40F2013135202C
:103DE000FDF77EFD40F207713620FDF779FD40F2C8
:103DF00005313720FDF774FD4FF402713820FDF7CF
:103E00006FFD00E03EE040F60B713920FDF768FDE4
:103E100002214120FDF764FD4FF41C516020FDF7A5
:103E20005FFD01216120FDF75BFD4FF404719020DF
:103E3000FDF756FD4FF485719220FDF751FD0421E9
:103E40009320FDF74DFD4FF48071A020FDF748FD54
:103E500001210720FDF744FD21210720FDF740FD4A
:103E600023210720FDF73CFD33210720FDF738FD16
:103E700040F233110720FDF733FD0021A020FDF7AC
:103E80002FFDB4E0FC488088A0F58A413539F8D18F
:103E900030211520FDF724FD10219A20FDF720FD8B
:103EA00020211120FDF71CFD43F228411020FDF7D1
:103EB00017FD02211220FDF713FD41F238011320F6
:103EC000FDF70EFD2820FDF762F812210846FDF7E8
:103ED00007FD2820FDF75BF843F220411020FDF795
:103EE000FFFC43F238011320FDF7FAFC4620FDF7F2
:103EF0004EF800213020FDF7F3FC40F20241312062
:103F0000FDF7EEFC40F207313220FDF7E9FC4FF4FB
:103F100041713320FDF7E4FC04213420FDF7E0FC7F
:103F200040F201413520FDF7DBFC40F207713620FD
:103F3000FDF7D6FC40F205313720FDF7D1FC4FF4F8
:103F4000C2613820FDF7CCFC4FF4C2613920FDF787
:103F5000C7FC4FF480710120FDF7C2FC4FF44071A3
:103F60000220FDF7BDFC41F230010320FDF7B8FC53
:103F700040F608010820FDF7B3FC08210A20FDF7F0
:103F8000AFFC4FF41C516020FDF7AAFC0121612019
:103F9000FDF7A6FC4FF49F719020FDF7A1FC4FF4B4
:103FA00080719220FDF79CFC4FF480719320FDF707
:103FB00097FC4FF44051A020FDF792FC1021A32064
:103FC000FDF78EFC01210720FDF78AFC2121072047
:103FD000FDF786FC23210720FDF782FC3321072013
:103FE000FDF77EFC40F233110720FDF779FC00203D
:103FF000FDF7E5FE0120A14908604FF6FF70FDF7CF
:1040000055FF10BD2DE9F05F04460D4616461F46CC
:10401000DDF828804FF0000B301B401C1FFA80FB9E
:10402000A94620E04946204607F0DEFBFDF774FC78
:104030004FF0000A11E04FF4807091490861400090
:1040400048619048C0F80C8C80204861086180006D
:1040500008610AF101001FFA80FADA45EBDB09F189
:1040600001001FFA80F9B945DCDDBDE8F09F2DE9BC
:10407000FF4F85B004460D4616460020049003907D
:10408000A6EB04080898A0EB0509A3460095B8F133
:10409000000F02DD012001900AE0B8F1000F02D10B
:1040A0000020019004E04FF0FF300190C8F10008BB
:1040B000B9F1000F02DD4FF0010A09E0B9F1000F7C
:1040C00002D14FF0000A03E04FF0FF3AC9F10009B6
:1040D000C84502DDCDF8088001E0CDF80890002742
:1040E00022E0009881B21FFA8BF0FDF74EFE049893
:1040F00040440490039848440390029904988842ED
:1041000005DD04990298081A049001988344DDE9BA
:104110000210884206DDDDE90210401A0390009883
:1041200050440090781C87B20298401C8742D8DD2A
:1041300009B0BDE8F08F2DE9F04104460D46164662
:104140001F462B46324629462046FFF790FF3B4646
:10415000224629462046FFF78AFF3B46324639462B
:104160002046FFF784FF3B46324629463046FFF79C
:104170007EFFBDE8F0812DE9F04704460D46164666
:104180000027B0460320A0EB460954E0EA1B91B299
:10419000A4EB080290B2FDF7F8FDEA1B91B204EB24
:1041A000080290B2FDF7F1FD05EB080291B2E21BA7
:1041B00090B2FDF7EAFDEA1B91B2A4EB080290B2BF
:1041C000FDF7E3FDA5EB080291B2E21B90B2FDF70B
:1041D000DCFDEA1991B204EB080290B2FDF7D5FDBF
:1041E000A5EB080291B2E21990B2FDF7CEFD05EB06
:1041F000080291B2E21990B2FDF7C7FDEA1991B237
:10420000A4EB080290B2FDF7C0FD7F1CB9F1000FCE
:1042100003DAB800801D814406E0A7EB08008000A7
:104220000A308144A8F1010805EB080291B2E219B5
:1042300090B2FDF7AAFD4745A8DDBDE8F0872DE95E
:10424000F84F04460D4616461F4600950E48B0F836
:1042500000B0A6F12000C6B20A9800285DD18246BF
:1042600058E00C2F14D106EB4600084901EB800002
:1042700010F80A8011E00000E0080020A8012242A6
:104280000010014000000140400100206EC70008FE
:10429000C14800EB061010F80A804FF0000931E029
:1042A00018F0800F03D0BD48A0F800B003E0BC4870
:1042B0000088BA49088029462046FDF766FD4FEA86
:1042C00048604FEA1068681C85B2B6480088A04272
:1042D00004DCB248A0F800B0BDE8F88F0098281AB6
:1042E000B8420BD1009D601C84B2AE480088A04249
:1042F00003DCAA48A0F800B0EEE706E009F10100EF
:1043000000F0FF09B9F1080FCADB00BF0AF1010094
:1043100000F0FF0ABA45A4DB47E04FF0000A42E094
:104320000C2F07D106EB46009F4901EB800010F8E7
:104330000A8004E0984800EB061010F80A804FF05D
:10434000000928E018F0800F03D029462046FDF729
:104350001CFD4FEA48604FEA1068681C85B291481E
:104360004088A04203DC8D48A0F800B0B4E7009874
:10437000281AB8420BD1009D601C84B2894800887D
:10438000A04203DC8548A0F800B0A5E706E009F1EB
:10439000010000F0FF09B9F1080FD3DB00BF0AF1FB
:1043A000010000F0FF0ABA45BADB7C48A0F800B073
:1043B00092E710B50246012000E050430B00A1F146
:1043C0000104E1B2F9D110BD2DE9FF4F81B00446DF
:1043D00015461E460E9F4FF0000AD0463EE0A6EB63
:1043E0000800401EC1B20A20FFF7E3FFB5FBF0F062
:1043F0000A21B0FBF1F201FB120000F0FF09BAF153
:10440000000F16D1701E404513DDB9F1000F0ED11B
:104410000023BB4607EBD771491001FB084188B266
:1044200000933B4620220299FFF709FF12E04FF06C
:10443000010A0023BB4607EBD771491001FB084175
:1044400088B200933B4609F13001CAB20299FFF7E6
:10445000F6FE00BF08F1010000F0FF08B045BEDB2A
:1044600005B0BDE8F08F2DE9FF4F83B00446154637
:104470001E46DDE9107800200290814652E0A6EB4E
:104480000900401EC1B20A20FFF793FFB5FBF0F010
:104490000A21B0FBF1F201FB120000F0FF0A0298C2
:1044A00050BB701E484527DDBAF1000F22D118F02D
:1044B000800F0FD008F00103BB4607EBD7714910FE
:1044C00001FB094188B200933B4630220499FFF773
:1044D000B6FE0EE008F00103BB4607EBD7714910AA
:1044E00001FB094188B200933B4620220499FFF763
:1044F000A6FE13E00120029008F00103BB4607EB83
:10450000D771491001FB094188B200933B460AF17B
:104510003001CAB20499FFF792FE00BF09F1010011
:1045200000F0FF09B145AADB07B0BDE8F08F2DE927
:10453000F84F04460D4616461F46DDE90A8904F089
:10454000FF0A301986B2781987B219E0B44203DB4A
:10455000544605EB080085B2BD4200DB18E000239D
:10456000009399F80020434629462046FFF767FE4E
:10457000404608EBD87104EB61018CB209F10109E6
:1045800099F800007E2803DC99F800002028DDDA85
:1045900000BFBDE8F88F0000E2CB0008400100201A
:1045A00042010020E00800206EC70008D6490988B3
:1045B000C8B2A5280DD1D549097841F08001D34A68
:1045C0001170D34A11784A1CD14B1A70D14A5054F9
:1045D0003AE05A281CD1CD49097811F0800F09D052
:1045E0000021CB4A1170C949097821F04001C74A1E
:1045F000117006E0C64A11784A1CC54B1A70C54AAC
:104600005054C249097821F08001C04A11701BE062
:10461000BF4A11784A1CBE4B1A70BE4A5054BB495F
:10462000097821F08001B94A1170BA4909781A460F
:104630001278914208D100211A461170B3490978C5
:1046400041F04001B14A1170B1490978642904D19F
:10465000AF490978491EAE4A117070470020AD4934
:1046600088780002C9780843AB490880704710B5C4
:104670000022002104E0A748405C0244481CC1B26B
:10468000A4480078801E8842F5DCD0B2A14B1B788C
:104690009B1EA04CE35C984201D1012010BD00207C
:1046A000FCE700B59948007810F0400F0ED097480D
:1046B000007820F0400095490870FFF7D8FF28B136
:1046C00094484078A62801D1FFF7C8FF00BD8E4866
:1046D000001F008810F0200F11D08B4800888F49F0
:1046E0008F4A126888548E480068401C8C490860C4
:1046F00008460068B0F5FA7F01D1002008607047D5
:1047000070B504460D4616468648406940F00100E3
:10471000844948610520FCF755FCA560E66000204F
:104720002060206840F01000206020682060206831
:104730002060206840F080002060206820602068B1
:104740002060206840F4805020602068206070BDA8
:1047500070B504460D467348806940F48070714915
:1047600088617148406820F0F0006F494860084651
:10477000406840F0300048606A48806940F00400BA
:10478000684988616948006820F47F406849C1F839
:1047900000080846D0F8000840F40B40C1F80008B3
:1047A0006048C06940F400305E49C861084600694D
:1047B00040F4003008610846006920F400300861C8
:1047C0005C486043B0FBF5F04FF04021A1F80804CD
:1047D0004D480830008842F20C0108434A4908312C
:1047E000088080204FF04021A1F814044649524A25
:1047F0005248FFF785FF4FF04020B0F80C0440F41A
:1048000080704FF04021A1F80C040846B0F80C0469
:1048100040F02000A1F80C040223262203211846B0
:10482000FCF704FC70BD026822F0010202604160E6
:10483000026842F00102026070470FB438B505A863
:1048400000903D48009A049905F028FC00BF3B48C1
:10485000001D00680028FAD1374805F025FEC4B2D3
:1048600021463648FFF7DFFF38BC5DF814FB2649C8
:10487000088000BF2449091F098811F0400FF9D0B2
:1048800070470AE00178204A1180401C00BF1E4991
:10489000091F098811F0400FF9D001780029F1D1E2
:1048A00070470AE00278184B1A80401C00BF164A75
:1048B000121F128812F0400FF9D00278002AF1D1AD
:1048C00099B10D22104B1A8000BF0F4A121F128897
:1048D00012F0400FF9D00A220B4B1A8000BF0A4A8F
:1048E000121F128812F0400FF9D07047002004E028
:1048F00030210A4A1154411C88B2B0F5FA7FF7DB27
:104900000021074A11607047044400404D01002017
:104910004C010020E40A00204E010020F008002095
:104920004801002000100240002001400008014022
:104930000000014040420F00480B00208000024070
:1049400070B50A2401268548806940F0100083492B
:1049500088618348006820F47F0081490860084628
:10496000006840F4030008600846C06840F020007A
:10497000C8604FF416512420FFF7EAFE33E001200F
:10498000784908600A20FCF702FB77A0FFF755FF83
:1049900000207749C1F8900100250AE07548008899
:1049A00010F4004F00D006E00520FCF7F0FA681C78
:1049B000C5B20A2DF2DB00BF6E48008810F4004F2C
:1049C00011D06C480088C6B200206A490880042EC5
:1049D00009D1694800784F2805D1674840784B28AD
:1049E00001D1002604E02000A4F10101CCB2C6D11F
:1049F00000BF04B90126304670BD70B50F2431E008
:104A00000120584908600A20FCF7C1FA5BA0FFF7B3
:104A100014FF00260AE00A20FCF7B9FA554800887E
:104A200010F4004F00D003E0701CC6B2142EF2DB6D
:104A300000BF00204B4908604E48008810F4004F2A
:104A400010D04C480088C5B200204A4908800D2D7E
:104A500008D1494800782B2804D14748807930385C
:104A6000C5B204E02000A4F10101CCB2C8D100BF5E
:104A700004B9FF25284670BD2DE9F04104460F27F3
:104A800030E00120374908600A20FCF780FA21460F
:104A90003DA0FFF7D2FE00203549C1F89001002665
:104AA0000AE03448008810F4004F00D006E00520EA
:104AB000FCF76DFA701CC6B2142EF2DB00BF2D4855
:104AC000008810F4004F0DD02A480088C5B200209D
:104AD00028490880042D05D1274800784F2801D1A6
:104AE000002504E03800A7F10101CFB2C9D100BF11
:104AF00007B9FF252846BDE8F08170B504460120BE
:104B0000184908600A20FCF742FA21461EA0FFF768
:104B100094FE00260AE01748008810F4004F00D0E9
:104B200006E00A20FCF733FA701CC6B2322EF2DB24
:104B300000BF00200B4908600E48008810F4004FA9
:104B40000AD00C480088C5B200200A4908800A49EA
:104B500048550FA005F0B6FA70BD000000100240E5
:104B6000001001409001224241540D0A0000000053
:104B70000000224244010020100C002041542B521E
:104B80004F4C453F0D0A000025730D0A0000000040
:104B90000D0A2573000000000246002105E0481CB4
:104BA000C1B2C82901DD002070475548008910F0C6
:104BB000020FF4D052488281002105E0481CC1B2A6
:104BC000C82901DD0020EFE74D48008910F0010FF2
:104BD000F4D04B488089C0B2E6E700B54948C068C8
:104BE00040F480504749C8600846C06820F48050AF
:104BF000C8600846806940F0040088610846806902
:104C000040F48050886140480068C0F313003F4979
:104C1000C1F800083C4800683D4908433B49C1F8D9
:104C200000080846D0F80C0840F0E000C1F80C0875
:104C300033480088324908800846008840F40070F4
:104C400008800846008840F4807008800846008884
:104C500040F0040008800846008808800846008864
:104C600040F0020008800846008840F001000880FB
:104C70000846008840F03800088008460088088010
:104C80000846008840F040000880FF20FFF784FFBE
:104C900000BD1B4909884FF6C7721140184A1180A0
:104CA000052825D2DFE800F003080F161D0014497F
:104CB0000988134A11801BE01149098841F0080155
:104CC0000F4A118014E00E49098841F010010C4A86
:104CD00011800DE00A49098841F01801084A118045
:104CE00006E00749098841F03801054A118000BFF4
:104CF00000BF0349098841F04001014A1180704713
:104D00000030014000100240000801400000014056
:104D10000000B0BB70B5044640F6FF7501E0681EA8
:104D200085B2FF20FFF738FFA04201D0002DF6D159
:104D30000DB9FF2070BD0020FCE770B5FF240025F1
:104D400000BFFF20FFF728FF00F01F04A5F57F40FC
:104D5000FE3801D1012070BD6D1C052C04D00B2C38
:104D600004D00D2C06D103E0052405E00B20F2E76A
:104D70000D20F0E7FF2400BF00BFFF2CE1D000258D
:104D800005E06D1C15F1020F01D3FF20E3E7FF20C2
:104D9000FFF702FF0028F4D00020DCE72DE9F04106
:104DA00004460D46164600270120FF490860FF20F3
:104DB000FFF7F2FEFF20FFF7EFFEFF20FFF7ECFE0C
:104DC0000020FA49C1F8840144F04000FFF7E4FEF6
:104DD000280EFFF7E1FEC5F30740FFF7DDFEC5F340
:104DE0000720FFF7D9FEE8B2FFF7D6FE3046FFF7FF
:104DF000D3FE04E0781CC7B2C82F00DD05E0FF2019
:104E0000FFF7CAFE8046FF28F4D000BF0120E64924
:104E10000860FF20FFF7C0FE4046BDE8F0812DE9A5
:104E2000F04104460D4616460027FF20FFF7B4FE6A
:104E3000FF20FFF7B1FE0020DB49086044F040008E
:104E4000FFF7AAFE280EFFF7A7FEC5F30740FFF7FE
:104E5000A3FEC5F30720FFF79FFEE8B2FFF79CFE15
:104E60003046FFF799FE04E0781CC7B2C82F00DD7A
:104E700005E0FF20FFF790FE8046FF28F4D000BF3A
:104E80004046BDE8F08170B5002401E0601C84B2AA
:104E9000B4F5706FFADB002404E0FF20FFF77CFE1E
:104EA000601C84B20A2CF8DB002500BF952200218B
:104EB0000846FFF773FF0446681CC5B2012C01D0F9
:104EC000C82DF3DBC82D01D1012070BD0020FCE707
:104ED0007CB5B748806940F00400B5498861B548A1
:104EE000006820F0F000B449C1F800080846D0F886
:104EF000000840F03000C1F800080846D0F80C085F
:104F000040F00200C1F80C08FFF767FE0420FFF72D
:104F1000C0FE0120A4490860FFF7B5FF08B10120D9
:104F20007CBD0020A049086087224FF4D57108207D
:104F3000FFF775FF0446052C52D101209F490870E8
:104F400099490860FF20FFF727FE002500BF0022D7
:104F500011463720FFF722FF0446FF2C01D12046DF
:104F6000DEE7002211462920FFF718FF0446681CDF
:104F700085B214B1B5F5C87FE9DBB5F5C87F15D1A9
:104F8000002500BF002211460120FFF707FF04465D
:104F9000681C85B214B1B5F5C87FF3DBB5F5C87FE1
:104FA00001D10120BCE70020844908700120FFF7EF
:104FB00070FEFF20FFF7F0FD952200213B20FFF758
:104FC000EDFE04460CB12046AAE795224FF400718D
:104FD0001020FFF7E3FE0446002C6BD020469FE72D
:104FE000012C67D1FF20FFF7D7FD8DF80000FF20CF
:104FF000FFF7D2FD8DF80100FF20FFF7CDFD8DF802
:105000000200FF20FFF7C8FD8DF80300012066496C
:105010000860FF20FFF7C0FD002500BF00221146F9
:105020003720FFF7BBFE0446012C01D0204677E76E
:1050300000224FF080412920FFF7B0FE0446C82D22
:1050400001DD20466CE7002CE8D1002211463A2011
:10505000FFF7E5FE044624B10120534908602046CD
:105060005EE7FF20FFF798FD8DF80000FF20FFF7B7
:1050700093FD8DF80100FF20FFF78EFD8DF80200F3
:10508000FF20FFF789FD8DF80300012046490860E5
:10509000FF20FFF781FD9DF8000010F0400F03D0C6
:1050A00004204649087002E00220444908700120AB
:1050B000FFF7EFFD204633E770B504460D46164670
:1050C000002039490860FE20FFF724FE18B10120B6
:1050D0003549086070BD04E0FF20FFF75DFD2070DA
:1050E000641C2800A5F101018DB2F5D1FF20FFF766
:1050F00053FDFF20FFF750FD012E05D101202A4965
:105100000860FF20FFF748FD0020E3E770B5044684
:10511000FF2200210A20FFF741FE05460DB1284677
:1051200070BD012210212046FFF7C6FF0020F7E7DF
:1051300070B50446FF2200210920FFF72FFE054627
:105140000DB1284670BD012210212046FFF7B4FFA3
:105150000020F7E72DE9FF416846FFF7E9FF18B1A6
:10516000002004B0BDE8F0819DF8000000F0C00010
:10517000402809D19DF8080004029DF80900401C50
:105180000444A40264023BE09DF8060000F003061C
:1051900036029DF807000644B6009DF8080006EBAD
:1051A00090169DF809000BE0840121420000214285
:1051B0000010024000080140000001409001002062
:1051C00000F003056D009DF80A0005EBD015AD1C3D
:1051D000012703E07804070C681EC5B2002DF9D141
:1051E000701C00FB07F49DF8050000F00F06012776
:1051F00003E07804070C701E86B2002EF9D17C43C0
:105200002046AEE770B504460E460120FFF741FD8B
:10521000F9480078042800D06402002221461120B9
:10522000FFF7BCFD05460DB1284670BD01225102B5
:105230003046FFF741FF05460DB12846F5E700204F
:10524000F3E72DE9F05F04460D4616464FF00008DF
:10525000C1464FEA56280020E849086032E005EBD5
:10526000090AE5480078042801D14FEA5A2AFF22AA
:1052700051461820FFF7D3FD8346BBF1000F04D041
:105280000120DE490860BDE8F09FFE20FFF784FCA6
:10529000002704E014F8010BFFF77EFC7F1CB7F534
:1052A000007FF7D3FF20FFF777FCFF20FFF774FCA8
:1052B000FFF743FD20B10120D04908600220E2E75A
:1052C00009F500795FEA0800A8F10108C7D10120BB
:1052D000CA490860FF20FFF75FFC0020D3E72DE9F3
:1052E000F04704460D4616460027B846B946BA466A
:1052F000770A0020C149086028E005EB0809BE488C
:105300000078042801D14FEA5929FF22494611208B
:10531000FFF785FD8246BAF1000F05D00120B7499D
:1053200008605046BDE8F087012251022046FFF791
:10533000C3FE8246BAF1000F04D00120AF490860D5
:105340005046EFE704F5007408F500783800A7F13F
:105350000107D2D10120A9490860FF20FFF71CFCFA
:105360000020DFE72DE9F04104460D46A248007811
:10537000042800D06402002221461820FFF70EFD09
:10538000064616B13046BDE8F08100209B49086012
:10539000FF20FFF701FCFF20FFF7FEFBFF20FFF7D8
:1053A000FBFBFE20FFF7F8FB002705E015F8010BDB
:1053B000FFF7F2FB781C87B2B7F5007FF6DBFF2022
:1053C000FFF7EAFBFF20FFF7E7FBFF20FFF7E4FB17
:1053D000064606F01F00052804D001208749086012
:1053E0003046D0E74FF000080BE008F101001FFA4B
:1053F00080F84FF6FE70804503DD01207F4908608C
:10540000C1E7FF20FFF7C8FB0028EED001207B4951
:105410000860FF20FFF7C0FB0020B4E72DE9F04152
:1054200004460D46174674480078042800D06402EC
:10543000002221461220FFF7B1FC064616B1304685
:10544000BDE8F08100BF00224FF400712846FFF74D
:1054500033FE00B105E005F50075781EC0B2070007
:10546000F1D100BF002211460C20FFF797FC01206C
:1054700062490860FF20FFF78FFB0FB13846DFE776
:105480000020DDE72DE9F04104460D4617465A4855
:105490000078042800D064025748007828B1002220
:1054A00039461720FFF77AFC0646002221461920CC
:1054B000FFF774FC064616B13046BDE8F0810020C7
:1054C0004E490860FF20FFF767FBFF20FFF764FBF2
:1054D00000BFFC20FFF760FB4FF0000807E015F865
:1054E000010BFFF759FB08F101001FFA80F8B8F52E
:1054F000007FF4DBFF20FFF74FFBFF20FFF74CFBA3
:10550000FF20FFF749FB064606F01F00052804D0E0
:1055100001203A4908603046CFE7FFF70EFC01282A
:1055200002D136490860C8E7781EC0B20700D0D162
:10553000FD20FFF731FB064606B9FE27FFF7FDFB0E
:1055400018B101202D490860B7E701202B490860F8
:10555000FF20FFF721FB3846AFE72DE9F04704466F
:105560000D4616461F464FF0000961020022112029
:10557000FFF714FC8046B8F1000F02D04046BDE8AA
:10558000F08700201D490860FE20FFF7C3FB18B11B
:1055900001201A490860F2E74FF0000906E0FF20F9
:1055A000FFF7FAFA09F101001FFA80F9B145F6D3C5
:1055B00008E0FF20FFF7F0FA05F8010B09F1010000
:1055C0001FFA80F9F0194845F3D806E0FF20FFF7ED
:1055D000E3FA09F101001FFA80F9B9F5007FF5DB64
:1055E000FF20FFF7D9FAFF20FFF7D6FA0120034981
:1055F00008600020C3E700009001002084012142E0
:1056000010B50D20FFF733F90A20FFF730F910BD70
:1056100010B504462146FF4804F034FF08B10120CC
:1056200010BD0020FCE7002012E0FA49095C2B299C
:105630000CD1F84A411C515C332907D1811C515CC3
:10564000322903D1811DF44A118004E0411C88B243
:10565000B0F5FA7FE9DB00BF00200EE0ED49095C00
:105660004F2908D1EB4A411C515C4B2903D1411F02
:10567000EA4A118004E0411C88B2B0F5FA7FEDDB04
:1056800000BF70472DE9F04104460D462746FFF75D
:105690002DF900261EE0E2A0FFF7BAFFB0B9E148FD
:1056A0000078B8B93C4603E02078FFF7E0F8641CC6
:1056B00020780028F8D1FFF7A3FF0020DA490880FE
:1056C000DA4805800120D749087003E00126002050
:1056D000D4490870002EDED0FFF708F9BDE8F0814C
:1056E0002DE9F04104460D462746FFF7FFF8002656
:1056F0001EE0CFA0FFF78CFFB0B9CA480078B8B958
:105700003C4603E02078FFF7B2F8641C20780028BC
:10571000F8D1FFF775FF0020C3490880C348058012
:105720000120C049087003E001260020BD4908702F
:10573000002EDED0FFF7DAF8BDE8F0812DE9F04168
:1057400004460D462746FFF7D1F8002622E0B4A014
:10575000FFF75EFFD0B9B8A0FFF75AFFB0B9B14864
:105760000078B8B93C4603E02078FFF780F8641C65
:1057700020780028F8D1FFF743FF0020AA490880CD
:10578000AA4805800120A749087003E001260020EF
:10579000A4490870002EDAD0FFF7A8F8BDE8F08120
:1057A00010B5A748007810BBA6A0FFF76AF8FFF76E
:1057B00027FF002416E09748005D3A2810D195494C
:1057C000201D085C312803D0201D085C352807D136
:1057D0009B480078401C9A490870FFF787F805E05D
:1057E000601C84B28B48005D0028E4D100BF10BD6E
:1057F00070B504460D46002600BFB6E0A05D2E2819
:1058000008D1322170000B302954452170000C3032
:105810002954A8E0A05D2C2808D1322170000B305B
:105820002954432170000C3029549CE0A05D3A2893
:1058300008D1332170000B302954412170000C3005
:10584000295490E0A05D412808D1342170000B302C
:105850002954312170000C30295484E0A05D422885
:1058600008D1342170000B302954322170000C30E3
:10587000295478E0A05D432808D1342170000B3012
:105880002954332170000C3029546CE0A05D442869
:1058900007D1342170000B30295470000C3029548A
:1058A00061E0A05D2D2808D1322170000B30295411
:1058B000442170000C30295455E0A05D452808D1E2
:1058C000342170000B302954352170000C302954DC
:1058D00049E0A05D462808D1342170000B302954DE
:1058E000362170000C3029543DE0A05D472808D1D6
:1058F000342170000B302954372170000C302954AA
:1059000031E0A05D482808D1342170000B302954C3
:10591000382170000C30295425E0A05D492808D1B9
:10592000342170000B302954392170000C30295477
:1059300019E0A05D212808D1322170000B302954D4
:10594000312170000C3029540DE0A05D302101EBB5
:10595000201170000B302954A05D00F00F01303190
:1059600070000C302954701C86B2204604F09CFD57
:10597000B0423FF643AF204604F096FD40000B30A6
:1059800022212954204604F08FFD40000C300021D4
:10599000295470BD2DE9F04798B004460027142221
:1059A0002B4913A804F09FFD2C2108A804F0CDFD7D
:1059B00014222749143103A804F095FD1E2125A0C7
:1059C000FFF760FE002506E0615D05F1090013AAFE
:1059D0001154681CC5B2204604F066FDA842F3D8F5
:1059E000204604F061FD093013A922220A54204602
:1059F00004F05AFD0A3013A900220A54FEF776FF7C
:105A000013AB1022CDE900231346F02264210020BD
:105A100024E00000F00800209E010020A0010020EA
:105A20004F4B000036010020380100203A010020D1
:105A3000434F4E4E454354004552524F52000000D2
:105A40009201002041542B435245473F0000000083
:105A5000D4D100084154453000000000FEF767FD36
:105A600057E0FEF743FF13A8FEF70BFFFFF7C8FD53
:105A700041F27070FBF78BFAF9A0FFF7C9FD00281F
:105A800047D100251FE0F848405D3A2804D1F64987
:105A9000E81C085C2E2808D0F348405D3A2805D160
:105AA000F149281D085C2E2800D1A846EE48405D2B
:105AB0004F2806D1EC49681C085C4B2801D1AA4646
:105AC00005E0681CC5B2E848405D0028DBD100BF96
:105AD00008F10100C6B207E0E348805DE349C8551C
